{"abi":[{"type":"constructor","inputs":[],"stateMutability":"nonpayable"},{"type":"function","name":"gm","inputs":[],"outputs":[],"stateMutability":"nonpayable"},{"type":"function","name":"owner","inputs":[],"outputs":[{"name":"","type":"address","internalType":"address"}],"stateMutability":"view"},{"type":"function","name":"pause","inputs":[],"outputs":[],"stateMutability":"nonpayable"},{"type":"function","name":"paused","inputs":[],"outputs":[{"name":"","type":"bool","internalType":"bool"}],"stateMutability":"view"},{"type":"function","name":"transferOwnership","inputs":[{"name":"newOwner","type":"address","internalType":"address"}],"outputs":[],"stateMutability":"nonpayable"},{"type":"function","name":"unpause","inputs":[],"outputs":[],"stateMutability":"nonpayable"},{"type":"event","name":"Gm","inputs":[{"name":"user","type":"address","indexed":true,"internalType":"address"}],"anonymous":false},{"type":"event","name":"OwnershipTransferred","inputs":[{"name":"user","type":"address","indexed":true,"internalType":"address"},{"name":"newOwner","type":"address","indexed":true,"internalType":"address"}],"anonymous":false},{"type":"event","name":"Paused","inputs":[{"name":"account","type":"address","indexed":false,"internalType":"address"}],"anonymous":false},{"type":"event","name":"Unpaused","inputs":[{"name":"account","type":"address","indexed":false,"internalType":"address"}],"anonymous":false}],"bytecode":{"object":"0x6080604052348015600e575f5ffd5b5033805f5f6101000a81548173ffffffffffffffffffffffffffffffffffffffff021916908373ffffffffffffffffffffffffffffffffffffffff1602179055508073ffffffffffffffffffffffffffffffffffffffff165f73ffffffffffffffffffffffffffffffffffffffff167f8be0079c531659141344cd1fd0a4f28419497f9722a3daafe3b4186f6b6457e060405160405180910390a3505f5f60146101000a81548160ff0219169083151502179055506107a5806100d05f395ff3fe608060405234801561000f575f5ffd5b5060043610610060575f3560e01c80633f4ba83a146100645780635c975abb1461006e5780638456cb591461008c5780638da5cb5b14610096578063c0129d43146100b4578063f2fde38b146100be575b5f5ffd5b61006c6100da565b005b610076610172565b604051610083919061055d565b60405180910390f35b610094610187565b005b61009e61021f565b6040516100ab91906105b5565b60405180910390f35b6100bc610243565b005b6100d860048036038101906100d391906105fc565b6102d0565b005b5f5f9054906101000a900473ffffffffffffffffffffffffffffffffffffffff1673ffffffffffffffffffffffffffffffffffffffff163373ffffffffffffffffffffffffffffffffffffffff1614610168576040517f08c379a000000000000000000000000000000000000000000000000000000000815260040161015f90610681565b60405180910390fd5b6101706103fa565b565b5f5f60149054906101000a900460ff16905090565b5f5f9054906101000a900473ffffffffffffffffffffffffffffffffffffffff1673ffffffffffffffffffffffffffffffffffffffff163373ffffffffffffffffffffffffffffffffffffffff1614610215576040517f08c379a000000000000000000000000000000000000000000000000000000000815260040161020c90610681565b60405180910390fd5b61021d61049a565b565b5f5f9054906101000a900473ffffffffffffffffffffffffffffffffffffffff1681565b61024b610172565b1561028b576040517f08c379a0000000000000000000000000000000000000000000000000000000008152600401610282906106e9565b60405180910390fd5b3373ffffffffffffffffffffffffffffffffffffffff167f200e23e9c3fb4e0ca2743752b05b850b7369508765f7b6c38c6fe25e73e26b6860405160405180910390a2565b5f5f9054906101000a900473ffffffffffffffffffffffffffffffffffffffff1673ffffffffffffffffffffffffffffffffffffffff163373ffffffffffffffffffffffffffffffffffffffff161461035e576040517f08c379a000000000000000000000000000000000000000000000000000000000815260040161035590610681565b60405180910390fd5b805f5f6101000a81548173ffffffffffffffffffffffffffffffffffffffff021916908373ffffffffffffffffffffffffffffffffffffffff1602179055508073ffffffffffffffffffffffffffffffffffffffff163373ffffffffffffffffffffffffffffffffffffffff167f8be0079c531659141344cd1fd0a4f28419497f9722a3daafe3b4186f6b6457e060405160405180910390a350565b610402610172565b610441576040517f08c379a000000000000000000000000000000000000000000000000000000000815260040161043890610751565b60405180910390fd5b5f5f60146101000a81548160ff0219169083151502179055507f5db9ee0a495bf2e6ff9c91a7834c1ba4fdd244a5e8aa4e537bd38aeae4b073aa61048361053c565b60405161049091906105b5565b60405180910390a1565b6104a2610172565b156104e2576040517f08c379a00000000000000000000000000000000000000000000000000000000081526004016104d9906106e9565b60405180910390fd5b60015f60146101000a81548160ff0219169083151502179055507f62e78cea01bee320cd4e420270b5ea74000d11b0c9f74754ebdbfc544b05a25861052561053c565b60405161053291906105b5565b60405180910390a1565b5f33905090565b5f8115159050919050565b61055781610543565b82525050565b5f6020820190506105705f83018461054e565b92915050565b5f73ffffffffffffffffffffffffffffffffffffffff82169050919050565b5f61059f82610576565b9050919050565b6105af81610595565b82525050565b5f6020820190506105c85f8301846105a6565b92915050565b5f5ffd5b6105db81610595565b81146105e5575f5ffd5b50565b5f813590506105f6816105d2565b92915050565b5f60208284031215610611576106106105ce565b5b5f61061e848285016105e8565b91505092915050565b5f82825260208201905092915050565b7f554e415554484f52495a454400000000000000000000000000000000000000005f82015250565b5f61066b600c83610627565b915061067682610637565b602082019050919050565b5f6020820190508181035f8301526106988161065f565b9050919050565b7f5061757361626c653a20706175736564000000000000000000000000000000005f82015250565b5f6106d3601083610627565b91506106de8261069f565b602082019050919050565b5f6020820190508181035f830152610700816106c7565b9050919050565b7f5061757361626c653a206e6f74207061757365640000000000000000000000005f82015250565b5f61073b601483610627565b915061074682610707565b602082019050919050565b5f6020820190508181035f8301526107688161072f565b905091905056fea26469706673582212201b1cd56905257ac25fc8fef19818052868e5023ff56f4221b29388addadfffbd64736f6c634300081e0033","linkReferences":{}},"methodIdentifiers":{"gm()":"c0129d43","owner()":"8da5cb5b","pause()":"8456cb59","paused()":"5c975abb","transferOwnership(address)":"f2fde38b","unpause()":"3f4ba83a"},"id":23}