{"abi":[{"type":"constructor","inputs":[{"name":"_initialPrice","type":"uint256","internalType":"uint256"}],"stateMutability":"nonpayable"},{"type":"function","name":"owner","inputs":[],"outputs":[{"name":"","type":"address","internalType":"address"}],"stateMutability":"view"},{"type":"function","name":"price","inputs":[],"outputs":[{"name":"","type":"uint256","internalType":"uint256"}],"stateMutability":"view"},{"type":"function","name":"renounceOwnership","inputs":[],"outputs":[],"stateMutability":"nonpayable"},{"type":"function","name":"resetStrikes","inputs":[],"outputs":[],"stateMutability":"payable"},{"type":"function","name":"transferOwnership","inputs":[{"name":"newOwner","type":"address","internalType":"address"}],"outputs":[],"stateMutability":"nonpayable"},{"type":"function","name":"updatePrice","inputs":[{"name":"_newPrice","type":"uint256","internalType":"uint256"}],"outputs":[],"stateMutability":"nonpayable"},{"type":"function","name":"withdraw","inputs":[],"outputs":[],"stateMutability":"nonpayable"},{"type":"event","name":"OwnershipTransferred","inputs":[{"name":"previousOwner","type":"address","indexed":true,"internalType":"address"},{"name":"newOwner","type":"address","indexed":true,"internalType":"address"}],"anonymous":false},{"type":"event","name":"StrikesReset","inputs":[{"name":"player","type":"address","indexed":true,"internalType":"address"}],"anonymous":false},{"type":"error","name":"OwnableInvalidOwner","inputs":[{"name":"owner","type":"address","internalType":"address"}]},{"type":"error","name":"OwnableUnauthorizedAccount","inputs":[{"name":"account","type":"address","internalType":"address"}]},{"type":"error","name":"ReentrancyGuardReentrantCall","inputs":[]}],"bytecode":{"object":"0x608060405234801561000f575f5ffd5b506040516108e23803806108e2833981810160405281019061003191906101be565b335f73ffffffffffffffffffffffffffffffffffffffff168173ffffffffffffffffffffffffffffffffffffffff16036100a2575f6040517f1e4fbdf70000000000000000000000000000000000000000000000000000000081526004016100999190610228565b60405180910390fd5b6100b1816100c660201b60201c565b50600180819055508060028190555050610241565b5f5f5f9054906101000a900473ffffffffffffffffffffffffffffffffffffffff169050815f5f6101000a81548173ffffffffffffffffffffffffffffffffffffffff021916908373ffffffffffffffffffffffffffffffffffffffff1602179055508173ffffffffffffffffffffffffffffffffffffffff168173ffffffffffffffffffffffffffffffffffffffff167f8be0079c531659141344cd1fd0a4f28419497f9722a3daafe3b4186f6b6457e060405160405180910390a35050565b5f5ffd5b5f819050919050565b61019d8161018b565b81146101a7575f5ffd5b50565b5f815190506101b881610194565b92915050565b5f602082840312156101d3576101d2610187565b5b5f6101e0848285016101aa565b91505092915050565b5f73ffffffffffffffffffffffffffffffffffffffff82169050919050565b5f610212826101e9565b9050919050565b61022281610208565b82525050565b5f60208201905061023b5f830184610219565b92915050565b6106948061024e5f395ff3fe60806040526004361061006f575f3560e01c80638d6cc56d1161004d5780638d6cc56d146100a95780638da5cb5b146100d1578063a035b1fe146100fb578063f2fde38b146101255761006f565b80633ccfd60b146100735780635e408d6b14610089578063715018a614610093575b5f5ffd5b34801561007e575f5ffd5b5061008761014d565b005b6100916101a2565b005b34801561009e575f5ffd5b506100a761023b565b005b3480156100b4575f5ffd5b506100cf60048036038101906100ca91906104e6565b61024e565b005b3480156100dc575f5ffd5b506100e5610260565b6040516100f29190610550565b60405180910390f35b348015610106575f5ffd5b5061010f610287565b60405161011c9190610578565b60405180910390f35b348015610130575f5ffd5b5061014b600480360381019061014691906105bb565b61028d565b005b610155610311565b61015d610260565b73ffffffffffffffffffffffffffffffffffffffff166108fc4790811502906040515f60405180830381858888f1935050505015801561019f573d5f5f3e3d5ffd5b50565b6101aa610398565b60025434146101ee576040517f08c379a00000000000000000000000000000000000000000000000000000000081526004016101e590610640565b60405180910390fd5b3373ffffffffffffffffffffffffffffffffffffffff167ffc46dcea5ad94ef8804047ccc18ee53abfe976b6fa6d881345d328ddaa1ae42060405160405180910390a26102396103de565b565b610243610311565b61024c5f6103e7565b565b610256610311565b8060028190555050565b5f5f5f9054906101000a900473ffffffffffffffffffffffffffffffffffffffff16905090565b60025481565b610295610311565b5f73ffffffffffffffffffffffffffffffffffffffff168173ffffffffffffffffffffffffffffffffffffffff1603610305575f6040517f1e4fbdf70000000000000000000000000000000000000000000000000000000081526004016102fc9190610550565b60405180910390fd5b61030e816103e7565b50565b6103196104a8565b73ffffffffffffffffffffffffffffffffffffffff16610337610260565b73ffffffffffffffffffffffffffffffffffffffff16146103965761035a6104a8565b6040517f118cdaa700000000000000000000000000000000000000000000000000000000815260040161038d9190610550565b60405180910390fd5b565b6002600154036103d4576040517f3ee5aeb500000000000000000000000000000000000000000000000000000000815260040160405180910390fd5b6002600181905550565b60018081905550565b5f5f5f9054906101000a900473ffffffffffffffffffffffffffffffffffffffff169050815f5f6101000a81548173ffffffffffffffffffffffffffffffffffffffff021916908373ffffffffffffffffffffffffffffffffffffffff1602179055508173ffffffffffffffffffffffffffffffffffffffff168173ffffffffffffffffffffffffffffffffffffffff167f8be0079c531659141344cd1fd0a4f28419497f9722a3daafe3b4186f6b6457e060405160405180910390a35050565b5f33905090565b5f5ffd5b5f819050919050565b6104c5816104b3565b81146104cf575f5ffd5b50565b5f813590506104e0816104bc565b92915050565b5f602082840312156104fb576104fa6104af565b5b5f610508848285016104d2565b91505092915050565b5f73ffffffffffffffffffffffffffffffffffffffff82169050919050565b5f61053a82610511565b9050919050565b61054a81610530565b82525050565b5f6020820190506105635f830184610541565b92915050565b610572816104b3565b82525050565b5f60208201905061058b5f830184610569565b92915050565b61059a81610530565b81146105a4575f5ffd5b50565b5f813590506105b581610591565b92915050565b5f602082840312156105d0576105cf6104af565b5b5f6105dd848285016105a7565b91505092915050565b5f82825260208201905092915050565b7f496e636f7272656374207061796d656e7420616d6f756e7400000000000000005f82015250565b5f61062a6018836105e6565b9150610635826105f6565b602082019050919050565b5f6020820190508181035f8301526106578161061e565b905091905056fea2646970667358221220ce9260621a2206b05278dba01a923fe5c275139b80741e5dac084d0ba47e2b8464736f6c634300081e0033","linkReferences":{}},"methodIdentifiers":{"owner()":"8da5cb5b","price()":"a035b1fe","renounceOwnership()":"715018a6","resetStrikes()":"5e408d6b","transferOwnership(address)":"f2fde38b","updatePrice(uint256)":"8d6cc56d","withdraw()":"3ccfd60b"},"id":26}