{"abi":[{"type":"constructor","inputs":[{"name":"_initialCost","type":"uint256","internalType":"uint256"}],"stateMutability":"nonpayable"},{"type":"function","name":"cost","inputs":[],"outputs":[{"name":"","type":"uint256","internalType":"uint256"}],"stateMutability":"view"},{"type":"function","name":"owner","inputs":[],"outputs":[{"name":"","type":"address","internalType":"address"}],"stateMutability":"view"},{"type":"function","name":"pause","inputs":[],"outputs":[],"stateMutability":"nonpayable"},{"type":"function","name":"paused","inputs":[],"outputs":[{"name":"","type":"bool","internalType":"bool"}],"stateMutability":"view"},{"type":"function","name":"resetStrikes","inputs":[],"outputs":[],"stateMutability":"payable"},{"type":"function","name":"setCost","inputs":[{"name":"_newCost","type":"uint256","internalType":"uint256"}],"outputs":[],"stateMutability":"nonpayable"},{"type":"function","name":"transferOwnership","inputs":[{"name":"newOwner","type":"address","internalType":"address"}],"outputs":[],"stateMutability":"nonpayable"},{"type":"function","name":"unpause","inputs":[],"outputs":[],"stateMutability":"nonpayable"},{"type":"function","name":"withdraw","inputs":[],"outputs":[],"stateMutability":"nonpayable"},{"type":"event","name":"OwnershipTransferred","inputs":[{"name":"user","type":"address","indexed":true,"internalType":"address"},{"name":"newOwner","type":"address","indexed":true,"internalType":"address"}],"anonymous":false},{"type":"event","name":"Paused","inputs":[{"name":"account","type":"address","indexed":false,"internalType":"address"}],"anonymous":false},{"type":"event","name":"StrikesReset","inputs":[{"name":"user","type":"address","indexed":true,"internalType":"address"}],"anonymous":false},{"type":"event","name":"Unpaused","inputs":[{"name":"account","type":"address","indexed":false,"internalType":"address"}],"anonymous":false}],"bytecode":{"object":"0x608060405234801561000f575f5ffd5b50604051610da2380380610da283398181016040528101906100319190610129565b33805f5f6101000a81548173ffffffffffffffffffffffffffffffffffffffff021916908373ffffffffffffffffffffffffffffffffffffffff1602179055508073ffffffffffffffffffffffffffffffffffffffff165f73ffffffffffffffffffffffffffffffffffffffff167f8be0079c531659141344cd1fd0a4f28419497f9722a3daafe3b4186f6b6457e060405160405180910390a3505f5f60146101000a81548160ff0219169083151502179055508060018190555050610154565b5f5ffd5b5f819050919050565b610108816100f6565b8114610112575f5ffd5b50565b5f81519050610123816100ff565b92915050565b5f6020828403121561013e5761013d6100f2565b5b5f61014b84828501610115565b91505092915050565b610c41806101615f395ff3fe608060405260043610610085575f3560e01c80635c975abb116100585780635c975abb146101075780635e408d6b146101315780638456cb591461013b5780638da5cb5b14610151578063f2fde38b1461017b57610085565b806313faede6146100895780633ccfd60b146100b35780633f4ba83a146100c957806344a0d68a146100df575b5f5ffd5b348015610094575f5ffd5b5061009d6101a3565b6040516100aa9190610860565b60405180910390f35b3480156100be575f5ffd5b506100c76101a9565b005b3480156100d4575f5ffd5b506100dd610302565b005b3480156100ea575f5ffd5b50610105600480360381019061010091906108a7565b61039a565b005b348015610112575f5ffd5b5061011b610432565b60405161012891906108ec565b60405180910390f35b610139610447565b005b348015610146575f5ffd5b5061014f610519565b005b34801561015c575f5ffd5b506101656105b1565b6040516101729190610944565b60405180910390f35b348015610186575f5ffd5b506101a1600480360381019061019c9190610987565b6105d5565b005b60015481565b5f5f9054906101000a900473ffffffffffffffffffffffffffffffffffffffff1673ffffffffffffffffffffffffffffffffffffffff163373ffffffffffffffffffffffffffffffffffffffff1614610237576040517f08c379a000000000000000000000000000000000000000000000000000000000815260040161022e90610a0c565b60405180910390fd5b5f5f5f9054906101000a900473ffffffffffffffffffffffffffffffffffffffff1673ffffffffffffffffffffffffffffffffffffffff164760405161027c90610a57565b5f6040518083038185875af1925050503d805f81146102b6576040519150601f19603f3d011682016040523d82523d5f602084013e6102bb565b606091505b50509050806102ff576040517f08c379a00000000000000000000000000000000000000000000000000000000081526004016102f690610ab5565b60405180910390fd5b50565b5f5f9054906101000a900473ffffffffffffffffffffffffffffffffffffffff1673ffffffffffffffffffffffffffffffffffffffff163373ffffffffffffffffffffffffffffffffffffffff1614610390576040517f08c379a000000000000000000000000000000000000000000000000000000000815260040161038790610a0c565b60405180910390fd5b6103986106ff565b565b5f5f9054906101000a900473ffffffffffffffffffffffffffffffffffffffff1673ffffffffffffffffffffffffffffffffffffffff163373ffffffffffffffffffffffffffffffffffffffff1614610428576040517f08c379a000000000000000000000000000000000000000000000000000000000815260040161041f90610a0c565b60405180910390fd5b8060018190555050565b5f5f60149054906101000a900460ff16905090565b61044f610432565b1561048f576040517f08c379a000000000000000000000000000000000000000000000000000000000815260040161048690610b1d565b60405180910390fd5b6001543410156104d4576040517f08c379a00000000000000000000000000000000000000000000000000000000081526004016104cb90610b85565b60405180910390fd5b3373ffffffffffffffffffffffffffffffffffffffff167ffc46dcea5ad94ef8804047ccc18ee53abfe976b6fa6d881345d328ddaa1ae42060405160405180910390a2565b5f5f9054906101000a900473ffffffffffffffffffffffffffffffffffffffff1673ffffffffffffffffffffffffffffffffffffffff163373ffffffffffffffffffffffffffffffffffffffff16146105a7576040517f08c379a000000000000000000000000000000000000000000000000000000000815260040161059e90610a0c565b60405180910390fd5b6105af61079f565b565b5f5f9054906101000a900473ffffffffffffffffffffffffffffffffffffffff1681565b5f5f9054906101000a900473ffffffffffffffffffffffffffffffffffffffff1673ffffffffffffffffffffffffffffffffffffffff163373ffffffffffffffffffffffffffffffffffffffff1614610663576040517f08c379a000000000000000000000000000000000000000000000000000000000815260040161065a90610a0c565b60405180910390fd5b805f5f6101000a81548173ffffffffffffffffffffffffffffffffffffffff021916908373ffffffffffffffffffffffffffffffffffffffff1602179055508073ffffffffffffffffffffffffffffffffffffffff163373ffffffffffffffffffffffffffffffffffffffff167f8be0079c531659141344cd1fd0a4f28419497f9722a3daafe3b4186f6b6457e060405160405180910390a350565b610707610432565b610746576040517f08c379a000000000000000000000000000000000000000000000000000000000815260040161073d90610bed565b60405180910390fd5b5f5f60146101000a81548160ff0219169083151502179055507f5db9ee0a495bf2e6ff9c91a7834c1ba4fdd244a5e8aa4e537bd38aeae4b073aa610788610841565b6040516107959190610944565b60405180910390a1565b6107a7610432565b156107e7576040517f08c379a00000000000000000000000000000000000000000000000000000000081526004016107de90610b1d565b60405180910390fd5b60015f60146101000a81548160ff0219169083151502179055507f62e78cea01bee320cd4e420270b5ea74000d11b0c9f74754ebdbfc544b05a25861082a610841565b6040516108379190610944565b60405180910390a1565b5f33905090565b5f819050919050565b61085a81610848565b82525050565b5f6020820190506108735f830184610851565b92915050565b5f5ffd5b61088681610848565b8114610890575f5ffd5b50565b5f813590506108a18161087d565b92915050565b5f602082840312156108bc576108bb610879565b5b5f6108c984828501610893565b91505092915050565b5f8115159050919050565b6108e6816108d2565b82525050565b5f6020820190506108ff5f8301846108dd565b92915050565b5f73ffffffffffffffffffffffffffffffffffffffff82169050919050565b5f61092e82610905565b9050919050565b61093e81610924565b82525050565b5f6020820190506109575f830184610935565b92915050565b61096681610924565b8114610970575f5ffd5b50565b5f813590506109818161095d565b92915050565b5f6020828403121561099c5761099b610879565b5b5f6109a984828501610973565b91505092915050565b5f82825260208201905092915050565b7f554e415554484f52495a454400000000000000000000000000000000000000005f82015250565b5f6109f6600c836109b2565b9150610a01826109c2565b602082019050919050565b5f6020820190508181035f830152610a23816109ea565b9050919050565b5f81905092915050565b50565b5f610a425f83610a2a565b9150610a4d82610a34565b5f82019050919050565b5f610a6182610a37565b9150819050919050565b7f5472616e73666572206661696c65642e000000000000000000000000000000005f82015250565b5f610a9f6010836109b2565b9150610aaa82610a6b565b602082019050919050565b5f6020820190508181035f830152610acc81610a93565b9050919050565b7f5061757361626c653a20706175736564000000000000000000000000000000005f82015250565b5f610b076010836109b2565b9150610b1282610ad3565b602082019050919050565b5f6020820190508181035f830152610b3481610afb565b9050919050565b7f4e6f7420656e6f7567682065746865722073656e7400000000000000000000005f82015250565b5f610b6f6015836109b2565b9150610b7a82610b3b565b602082019050919050565b5f6020820190508181035f830152610b9c81610b63565b9050919050565b7f5061757361626c653a206e6f74207061757365640000000000000000000000005f82015250565b5f610bd76014836109b2565b9150610be282610ba3565b602082019050919050565b5f6020820190508181035f830152610c0481610bcb565b905091905056fea2646970667358221220844f981900ac8aaaa07151ba716524a98b9f40fd3c354d81ee445f7a61aa35de64736f6c634300081e0033","linkReferences":{}},"methodIdentifiers":{"cost()":"13faede6","owner()":"8da5cb5b","pause()":"8456cb59","paused()":"5c975abb","resetStrikes()":"5e408d6b","setCost(uint256)":"44a0d68a","transferOwnership(address)":"f2fde38b","unpause()":"3f4ba83a","withdraw()":"3ccfd60b"},"id":3}